{
  "contractName": "Accounts",
  "abi": [
    {
      "constant": true,
      "inputs": [
        {
          "name": "",
          "type": "uint256"
        }
      ],
      "name": "allAccounts",
      "outputs": [
        {
          "name": "",
          "type": "address"
        }
      ],
      "payable": false,
      "stateMutability": "view",
      "type": "function",
      "signature": "0x6c3fda1d"
    },
    {
      "constant": false,
      "inputs": [
        {
          "name": "_addr",
          "type": "address"
        },
        {
          "name": "_firstName",
          "type": "bytes16"
        },
        {
          "name": "_lastName",
          "type": "bytes16"
        },
        {
          "name": "_biography",
          "type": "string"
        },
        {
          "name": "_email",
          "type": "string"
        }
      ],
      "name": "setAccount",
      "outputs": [],
      "payable": false,
      "stateMutability": "nonpayable",
      "type": "function",
      "signature": "0x1b72e3f8"
    },
    {
      "constant": true,
      "inputs": [],
      "name": "getAccounts",
      "outputs": [
        {
          "name": "",
          "type": "address[]"
        }
      ],
      "payable": false,
      "stateMutability": "view",
      "type": "function",
      "signature": "0x8a48ac03"
    },
    {
      "constant": true,
      "inputs": [
        {
          "name": "_addr",
          "type": "address"
        }
      ],
      "name": "getAccount",
      "outputs": [
        {
          "name": "",
          "type": "bytes16"
        },
        {
          "name": "",
          "type": "bytes16"
        },
        {
          "name": "",
          "type": "uint256[]"
        },
        {
          "name": "",
          "type": "uint256[]"
        },
        {
          "name": "",
          "type": "address"
        },
        {
          "name": "",
          "type": "string"
        },
        {
          "name": "",
          "type": "string"
        }
      ],
      "payable": false,
      "stateMutability": "view",
      "type": "function",
      "signature": "0xfbcbc0f1"
    },
    {
      "constant": false,
      "inputs": [
        {
          "name": "_addr",
          "type": "address"
        },
        {
          "name": "id",
          "type": "uint256"
        }
      ],
      "name": "addEmployerJob",
      "outputs": [],
      "payable": false,
      "stateMutability": "nonpayable",
      "type": "function",
      "signature": "0x60c3be91"
    },
    {
      "constant": false,
      "inputs": [
        {
          "name": "_addr",
          "type": "address"
        },
        {
          "name": "id",
          "type": "uint256"
        }
      ],
      "name": "addWorkerJob",
      "outputs": [],
      "payable": false,
      "stateMutability": "nonpayable",
      "type": "function",
      "signature": "0x765ae8f2"
    },
    {
      "constant": true,
      "inputs": [
        {
          "name": "_addr",
          "type": "address"
        }
      ],
      "name": "getEmployerJobs",
      "outputs": [
        {
          "name": "",
          "type": "uint256[]"
        }
      ],
      "payable": false,
      "stateMutability": "view",
      "type": "function",
      "signature": "0x5f58cb4f"
    },
    {
      "constant": true,
      "inputs": [
        {
          "name": "_addr",
          "type": "address"
        }
      ],
      "name": "getWorkerJobs",
      "outputs": [
        {
          "name": "",
          "type": "uint256[]"
        }
      ],
      "payable": false,
      "stateMutability": "view",
      "type": "function",
      "signature": "0x06d004ef"
    },
    {
      "constant": true,
      "inputs": [],
      "name": "countAccounts",
      "outputs": [
        {
          "name": "",
          "type": "uint256"
        }
      ],
      "payable": false,
      "stateMutability": "view",
      "type": "function",
      "signature": "0xf24ae640"
    }
  ],
  "bytecode": "0x608060405234801561001057600080fd5b506111a0806100206000396000f3fe608060405260043610610099576000357c0100000000000000000000000000000000000000000000000000000000900463ffffffff16806306d004ef1461009e5780631b72e3f8146101445780635f58cb4f146102fd57806360c3be91146103a35780636c3fda1d146103fe578063765ae8f2146104795780638a48ac03146104d4578063f24ae64014610540578063fbcbc0f11461056b575b600080fd5b3480156100aa57600080fd5b506100ed600480360360208110156100c157600080fd5b81019080803573ffffffffffffffffffffffffffffffffffffffff1690602001909291905050506107be565b6040518080602001828103825283818151815260200191508051906020019060200280838360005b83811015610130578082015181840152602081019050610115565b505050509050019250505060405180910390f35b34801561015057600080fd5b506102fb600480360360a081101561016757600080fd5b81019080803573ffffffffffffffffffffffffffffffffffffffff16906020019092919080356fffffffffffffffffffffffffffffffff1916906020019092919080356fffffffffffffffffffffffffffffffff19169060200190929190803590602001906401000000008111156101de57600080fd5b8201836020820111156101f057600080fd5b8035906020019184600183028401116401000000008311171561021257600080fd5b91908080601f016020809104026020016040519081016040528093929190818152602001838380828437600081840152601f19601f8201169050808301925050505050505091929192908035906020019064010000000081111561027557600080fd5b82018360208201111561028757600080fd5b803590602001918460018302840111640100000000831117156102a957600080fd5b91908080601f016020809104026020016040519081016040528093929190818152602001838380828437600081840152601f19601f820116905080830192505050505050509192919290505050610857565b005b34801561030957600080fd5b5061034c6004803603602081101561032057600080fd5b81019080803573ffffffffffffffffffffffffffffffffffffffff1690602001909291905050506109f6565b6040518080602001828103825283818151815260200191508051906020019060200280838360005b8381101561038f578082015181840152602081019050610374565b505050509050019250505060405180910390f35b3480156103af57600080fd5b506103fc600480360360408110156103c657600080fd5b81019080803573ffffffffffffffffffffffffffffffffffffffff16906020019092919080359060200190929190505050610a8f565b005b34801561040a57600080fd5b506104376004803603602081101561042157600080fd5b8101908080359060200190929190505050610b5d565b604051808273ffffffffffffffffffffffffffffffffffffffff1673ffffffffffffffffffffffffffffffffffffffff16815260200191505060405180910390f35b34801561048557600080fd5b506104d26004803603604081101561049c57600080fd5b81019080803573ffffffffffffffffffffffffffffffffffffffff16906020019092919080359060200190929190505050610b9b565b005b3480156104e057600080fd5b506104e9610c10565b6040518080602001828103825283818151815260200191508051906020019060200280838360005b8381101561052c578082015181840152602081019050610511565b505050509050019250505060405180910390f35b34801561054c57600080fd5b50610555610c9e565b6040518082815260200191505060405180910390f35b34801561057757600080fd5b506105ba6004803603602081101561058e57600080fd5b81019080803573ffffffffffffffffffffffffffffffffffffffff169060200190929190505050610cab565b60405180886fffffffffffffffffffffffffffffffff19166fffffffffffffffffffffffffffffffff19168152602001876fffffffffffffffffffffffffffffffff19166fffffffffffffffffffffffffffffffff1916815260200180602001806020018673ffffffffffffffffffffffffffffffffffffffff1673ffffffffffffffffffffffffffffffffffffffff168152602001806020018060200185810385528a818151815260200191508051906020019060200280838360005b83811015610693578082015181840152602081019050610678565b50505050905001858103845289818151815260200191508051906020019060200280838360005b838110156106d55780820151818401526020810190506106ba565b50505050905001858103835287818151815260200191508051906020019080838360005b838110156107145780820151818401526020810190506106f9565b50505050905090810190601f1680156107415780820380516001836020036101000a031916815260200191505b50858103825286818151815260200191508051906020019080838360005b8381101561077a57808201518184015260208101905061075f565b50505050905090810190601f1680156107a75780820380516001836020036101000a031916815260200191505b509b50505050505050505050505060405180910390f35b60606000808373ffffffffffffffffffffffffffffffffffffffff1673ffffffffffffffffffffffffffffffffffffffff16815260200190815260200160002060040180548060200260200160405190810160405280929190818152602001828054801561084b57602002820191906000526020600020905b815481526020019060010190808311610837575b50505050509050919050565b60008060008773ffffffffffffffffffffffffffffffffffffffff1673ffffffffffffffffffffffffffffffffffffffff1681526020019081526020016000209050848160000160006101000a8154816fffffffffffffffffffffffffffffffff021916908370010000000000000000000000000000000090040217905550838160000160106101000a8154816fffffffffffffffffffffffffffffffff0219169083700100000000000000000000000000000000900402179055508281600101908051906020019061092b9291906110cf565b50818160020190805190602001906109449291906110cf565b50858160050160006101000a81548173ffffffffffffffffffffffffffffffffffffffff021916908373ffffffffffffffffffffffffffffffffffffffff16021790555060018690806001815401808255809150509060018203906000526020600020016000909192909190916101000a81548173ffffffffffffffffffffffffffffffffffffffff021916908373ffffffffffffffffffffffffffffffffffffffff16021790555050505050505050565b60606000808373ffffffffffffffffffffffffffffffffffffffff1673ffffffffffffffffffffffffffffffffffffffff168152602001908152602001600020600301805480602002602001604051908101604052809291908181526020018280548015610a8357602002820191906000526020600020905b815481526020019060010190808311610a6f575b50505050509050919050565b60008060008473ffffffffffffffffffffffffffffffffffffffff1673ffffffffffffffffffffffffffffffffffffffff16815260200190815260200160002090503373ffffffffffffffffffffffffffffffffffffffff168160050160009054906101000a900473ffffffffffffffffffffffffffffffffffffffff1673ffffffffffffffffffffffffffffffffffffffff161415610b5857806003018290806001815401808255809150509060018203906000526020600020016000909192909190915055505b505050565b600181815481101515610b6c57fe5b906000526020600020016000915054906101000a900473ffffffffffffffffffffffffffffffffffffffff1681565b60008060008473ffffffffffffffffffffffffffffffffffffffff1673ffffffffffffffffffffffffffffffffffffffff168152602001908152602001600020905080600401829080600181540180825580915050906001820390600052602060002001600090919290919091505550505050565b60606001805480602002602001604051908101604052809291908181526020018280548015610c9457602002820191906000526020600020905b8160009054906101000a900473ffffffffffffffffffffffffffffffffffffffff1673ffffffffffffffffffffffffffffffffffffffff1681526020019060010190808311610c4a575b5050505050905090565b6000600180549050905090565b60008060608060006060806000808973ffffffffffffffffffffffffffffffffffffffff1673ffffffffffffffffffffffffffffffffffffffff16815260200190815260200160002060000160009054906101000a9004700100000000000000000000000000000000026000808a73ffffffffffffffffffffffffffffffffffffffff1673ffffffffffffffffffffffffffffffffffffffff16815260200190815260200160002060000160109054906101000a9004700100000000000000000000000000000000026000808b73ffffffffffffffffffffffffffffffffffffffff1673ffffffffffffffffffffffffffffffffffffffff1681526020019081526020016000206003016000808c73ffffffffffffffffffffffffffffffffffffffff1673ffffffffffffffffffffffffffffffffffffffff1681526020019081526020016000206004016000808d73ffffffffffffffffffffffffffffffffffffffff1673ffffffffffffffffffffffffffffffffffffffff16815260200190815260200160002060050160009054906101000a900473ffffffffffffffffffffffffffffffffffffffff166000808e73ffffffffffffffffffffffffffffffffffffffff1673ffffffffffffffffffffffffffffffffffffffff1681526020019081526020016000206001016000808f73ffffffffffffffffffffffffffffffffffffffff1673ffffffffffffffffffffffffffffffffffffffff16815260200190815260200160002060020184805480602002602001604051908101604052809291908181526020018280548015610f2557602002820191906000526020600020905b815481526020019060010190808311610f11575b5050505050945083805480602002602001604051908101604052809291908181526020018280548015610f7757602002820191906000526020600020905b815481526020019060010190808311610f63575b50505050509350818054600181600116156101000203166002900480601f0160208091040260200160405190810160405280929190818152602001828054600181600116156101000203166002900480156110135780601f10610fe857610100808354040283529160200191611013565b820191906000526020600020905b815481529060010190602001808311610ff657829003601f168201915b50505050509150808054600181600116156101000203166002900480601f0160208091040260200160405190810160405280929190818152602001828054600181600116156101000203166002900480156110af5780601f10611084576101008083540402835291602001916110af565b820191906000526020600020905b81548152906001019060200180831161109257829003601f168201915b505050505090509650965096509650965096509650919395979092949650565b828054600181600116156101000203166002900490600052602060002090601f016020900481019282601f1061111057805160ff191683800117855561113e565b8280016001018555821561113e579182015b8281111561113d578251825591602001919060010190611122565b5b50905061114b919061114f565b5090565b61117191905b8082111561116d576000816000905550600101611155565b5090565b9056fea165627a7a72305820fc80564a8163a921ac07a06cec4fe64e7aa1baed4f7ba1f4ec60b18ef1c2b2770029",
  "source": "pragma solidity ^0.5.0;\r\n\r\n/// @title A simulator for trees\r\n/// @author Kenneth Hu\r\n/// @notice You can use this contract to manage users.\r\n/// @dev All function calls are currently implemented without side effects\r\ncontract Accounts {\r\n    struct Account {\r\n        bytes16 firstName;\r\n        bytes16 lastName;\r\n        string biography;\r\n        string email;\r\n        uint[] employerJobs; // All jobs a user has created\r\n        uint[] workerJobs;  // All jobs a user has been assigned to\r\n        address addr;\r\n    }\r\n\r\n    mapping (address => Account) accounts; // Map contract address to account\r\n    address[] public allAccounts;\r\n\r\n\r\n    /// @notice Create an account\r\n    /// @param _addr the ethereum wallet address of account\r\n    /// @param _firstName the fast name of account\r\n    /// @param _lastName the last name of account\r\n    /// @param _biography a detailed description of an account.\r\n    /// @param _email account's email address\r\n    function setAccount(address _addr,\r\n    bytes16 _firstName,\r\n    bytes16 _lastName,\r\n    string memory _biography,\r\n    string memory _email) public {\r\n        Account storage account = accounts[_addr];\r\n\r\n        account.firstName = _firstName;\r\n        account.lastName = _lastName;\r\n        account.biography = _biography;\r\n        account.email = _email;\r\n        account.employerJobs;\r\n        account.workerJobs;\r\n        account.addr = _addr;\r\n        allAccounts.push(_addr);\r\n    }\r\n\r\n    /// @notice Get a list of all accounts\r\n    /// @return a list of all accounts\r\n    function getAccounts() public view returns(address[] memory) {\r\n        return allAccounts;\r\n    }\r\n\r\n\r\n    /// @notice Get a single account\r\n    /// @param _addr the ethereum wallet address of account\r\n    /// @return the detial of a single account\r\n    function getAccount(address _addr) public view returns\r\n    (bytes16, bytes16, uint[] memory, uint[] memory, address,string memory,string memory) {\r\n        return (accounts[_addr].firstName,\r\n         accounts[_addr].lastName,\r\n         accounts[_addr].employerJobs,\r\n         accounts[_addr].workerJobs,\r\n         accounts[_addr].addr,\r\n         accounts[_addr].biography,\r\n         accounts[_addr].email);\r\n    }\r\n\r\n    /// @notice Add a job to an accounts employerJobs list\r\n    /// @param _addr the ethereum wallet address of account\r\n    /// @param id the ethereum wallet address of account\r\n    function addEmployerJob(address _addr, uint id) public {\r\n        Account storage acc = accounts[_addr];\r\n        if (acc.addr == msg.sender) {\r\n            acc.employerJobs.push(id);\r\n        }\r\n    }\r\n\r\n    /// @notice Add a job to an accounts workerJobs list\r\n    /// @param _addr the ethereum wallet address of account\r\n    /// @param id the ethereum wallet address of account\r\n    function addWorkerJob(address _addr, uint id) public {\r\n         Account storage acc = accounts[_addr];\r\n        acc.workerJobs.push(id);\r\n    }\r\n\r\n    /// @notice get all of an accounts employerJobs\r\n    /// @param _addr the ethereum wallet address of account\r\n    /// @return all of an accounts employerJobs\r\n    function getEmployerJobs(address _addr) public view returns (uint[] memory) {\r\n        return accounts[_addr].employerJobs;\r\n    }\r\n\r\n    /// @notice get all of an accounts workerJobs\r\n    /// @param _addr the ethereum wallet address of account\r\n    /// @return all of an accounts workerJobs\r\n    function getWorkerJobs(address _addr) public view returns (uint[] memory) {\r\n        return accounts[_addr].workerJobs;\r\n    }\r\n\r\n    /// @notice get the total number of accounts\r\n    /// @param _addr the ethereum wallet address of account\r\n    /// @return the total number of accounts\r\n    function countAccounts() public view returns (uint) {\r\n        return allAccounts.length;\r\n    }\r\n}\r\n",
  "sourcePath": "/Users/kenneth/Desktop/Project/consensys/contracts/Accounts.sol",
  "compiler": {
    "name": "solc",
    "version": "0.5.0+commit.1d4f565a.Emscripten.clang"
  },
  "schemaVersion": "3.0.1",
  "updatedAt": "2020-01-24T13:07:28.941Z",
  "devdoc": {
    "details": "All function calls are currently implemented without side effects",
    "methods": {
      "addEmployerJob(address,uint256)": {
        "params": {
          "id": "the ethereum wallet address of account"
        }
      },
      "addWorkerJob(address,uint256)": {
        "params": {
          "id": "the ethereum wallet address of account"
        }
      },
      "countAccounts()": {
        "return": "the total number of accounts"
      },
      "getAccount(address)": {
        "return": "the detial of a single account"
      },
      "getAccounts()": {
        "return": "a list of all accounts"
      },
      "getEmployerJobs(address)": {
        "return": "all of an accounts employerJobs"
      },
      "getWorkerJobs(address)": {
        "return": "all of an accounts workerJobs"
      },
      "setAccount(address,bytes16,bytes16,string,string)": {
        "params": {
          "_email": "account's email address"
        }
      }
    }
  },
  "userdoc": {
    "methods": {}
  }
}