{
  "contractName": "BountyPost",
  "abi": [
    {
      "constant": true,
      "inputs": [
        {
          "name": "",
          "type": "uint256"
        }
      ],
      "name": "posterAccounts",
      "outputs": [
        {
          "name": "",
          "type": "address"
        }
      ],
      "payable": false,
      "stateMutability": "view",
      "type": "function",
      "signature": "0x3b1f59cc"
    },
    {
      "constant": false,
      "inputs": [
        {
          "name": "title",
          "type": "string"
        },
        {
          "name": "desc",
          "type": "string"
        },
        {
          "name": "attachment",
          "type": "string"
        },
        {
          "name": "pay",
          "type": "uint256"
        }
      ],
      "name": "addBounty",
      "outputs": [],
      "payable": true,
      "stateMutability": "payable",
      "type": "function",
      "signature": "0x21651a20"
    },
    {
      "constant": false,
      "inputs": [
        {
          "name": "bountyId",
          "type": "uint256"
        },
        {
          "name": "arbitrator",
          "type": "address"
        }
      ],
      "name": "setArbitrator",
      "outputs": [],
      "payable": false,
      "stateMutability": "nonpayable",
      "type": "function",
      "signature": "0xb19b7e54"
    },
    {
      "constant": true,
      "inputs": [
        {
          "name": "bountyId",
          "type": "uint256"
        }
      ],
      "name": "getArbitrator",
      "outputs": [
        {
          "name": "",
          "type": "address"
        }
      ],
      "payable": false,
      "stateMutability": "view",
      "type": "function",
      "signature": "0x3ffc0006"
    },
    {
      "constant": true,
      "inputs": [
        {
          "name": "i",
          "type": "uint256"
        }
      ],
      "name": "getBounty",
      "outputs": [
        {
          "name": "",
          "type": "uint256"
        },
        {
          "name": "",
          "type": "string"
        },
        {
          "name": "",
          "type": "string"
        },
        {
          "name": "",
          "type": "string"
        },
        {
          "name": "",
          "type": "uint256"
        },
        {
          "name": "",
          "type": "address"
        }
      ],
      "payable": false,
      "stateMutability": "view",
      "type": "function",
      "signature": "0xee8c4bbf"
    },
    {
      "constant": true,
      "inputs": [],
      "name": "getBountyCount",
      "outputs": [
        {
          "name": "",
          "type": "uint256"
        }
      ],
      "payable": false,
      "stateMutability": "view",
      "type": "function",
      "signature": "0x06641f7e"
    },
    {
      "constant": false,
      "inputs": [
        {
          "name": "i",
          "type": "uint256"
        }
      ],
      "name": "applyToBounty",
      "outputs": [],
      "payable": false,
      "stateMutability": "nonpayable",
      "type": "function",
      "signature": "0xd12e4ff5"
    },
    {
      "constant": true,
      "inputs": [
        {
          "name": "i",
          "type": "uint256"
        }
      ],
      "name": "getApplicants",
      "outputs": [
        {
          "name": "",
          "type": "address[]"
        }
      ],
      "payable": false,
      "stateMutability": "view",
      "type": "function",
      "signature": "0x6cf5d86e"
    },
    {
      "constant": false,
      "inputs": [
        {
          "name": "bountyId",
          "type": "uint256"
        },
        {
          "name": "candidate",
          "type": "address"
        }
      ],
      "name": "setWorker",
      "outputs": [],
      "payable": false,
      "stateMutability": "nonpayable",
      "type": "function",
      "signature": "0x4eac2a58"
    },
    {
      "constant": true,
      "inputs": [
        {
          "name": "bountyId",
          "type": "uint256"
        }
      ],
      "name": "getWorker",
      "outputs": [
        {
          "name": "",
          "type": "address"
        }
      ],
      "payable": false,
      "stateMutability": "view",
      "type": "function",
      "signature": "0xa39dbdb9"
    },
    {
      "constant": true,
      "inputs": [
        {
          "name": "bountyId",
          "type": "uint256"
        }
      ],
      "name": "getOwner",
      "outputs": [
        {
          "name": "",
          "type": "address"
        }
      ],
      "payable": false,
      "stateMutability": "view",
      "type": "function",
      "signature": "0xc41a360a"
    },
    {
      "constant": false,
      "inputs": [
        {
          "name": "bountyId",
          "type": "uint256"
        }
      ],
      "name": "completeWork",
      "outputs": [],
      "payable": false,
      "stateMutability": "nonpayable",
      "type": "function",
      "signature": "0x4e533b78"
    },
    {
      "constant": true,
      "inputs": [
        {
          "name": "bountyId",
          "type": "uint256"
        }
      ],
      "name": "isWorkComplete",
      "outputs": [
        {
          "name": "",
          "type": "bool"
        }
      ],
      "payable": false,
      "stateMutability": "view",
      "type": "function",
      "signature": "0x2cde5b39"
    },
    {
      "constant": false,
      "inputs": [
        {
          "name": "bountyId",
          "type": "uint256"
        }
      ],
      "name": "completeBounty",
      "outputs": [],
      "payable": false,
      "stateMutability": "nonpayable",
      "type": "function",
      "signature": "0x139005ab"
    },
    {
      "constant": true,
      "inputs": [
        {
          "name": "bountyId",
          "type": "uint256"
        }
      ],
      "name": "isComplete",
      "outputs": [
        {
          "name": "",
          "type": "bool"
        }
      ],
      "payable": false,
      "stateMutability": "view",
      "type": "function",
      "signature": "0x3a0be1a6"
    },
    {
      "constant": false,
      "inputs": [
        {
          "name": "bountyId",
          "type": "uint256"
        }
      ],
      "name": "cancelBounty",
      "outputs": [],
      "payable": false,
      "stateMutability": "nonpayable",
      "type": "function",
      "signature": "0xe5e5dff1"
    }
  ],
  "bytecode": "0x60806040526000805534801561001457600080fd5b50611764806100246000396000f3fe6080604052600436106100e6576000357c0100000000000000000000000000000000000000000000000000000000900463ffffffff16806306641f7e146100eb578063139005ab1461011657806321651a20146101515780632cde5b39146103445780633a0be1a6146103975780633b1f59cc146103ea5780633ffc0006146104655780634e533b78146104e05780634eac2a581461051b5780636cf5d86e14610576578063a39dbdb914610606578063b19b7e5414610681578063c41a360a146106dc578063d12e4ff514610757578063e5e5dff114610792578063ee8c4bbf146107cd575b600080fd5b3480156100f757600080fd5b5061010061099a565b6040518082815260200191505060405180910390f35b34801561012257600080fd5b5061014f6004803603602081101561013957600080fd5b81019080803590602001909291905050506109a3565b005b6103426004803603608081101561016757600080fd5b810190808035906020019064010000000081111561018457600080fd5b82018360208201111561019657600080fd5b803590602001918460018302840111640100000000831117156101b857600080fd5b91908080601f016020809104026020016040519081016040528093929190818152602001838380828437600081840152601f19601f8201169050808301925050505050505091929192908035906020019064010000000081111561021b57600080fd5b82018360208201111561022d57600080fd5b8035906020019184600183028401116401000000008311171561024f57600080fd5b91908080601f016020809104026020016040519081016040528093929190818152602001838380828437600081840152601f19601f820116905080830192505050505050509192919290803590602001906401000000008111156102b257600080fd5b8201836020820111156102c457600080fd5b803590602001918460018302840111640100000000831117156102e657600080fd5b91908080601f016020809104026020016040519081016040528093929190818152602001838380828437600081840152601f19601f82011690508083019250505050505050919291929080359060200190929190505050610afd565b005b34801561035057600080fd5b5061037d6004803603602081101561036757600080fd5b8101908080359060200190929190505050610cf5565b604051808215151515815260200191505060405180910390f35b3480156103a357600080fd5b506103d0600480360360208110156103ba57600080fd5b8101908080359060200190929190505050610d27565b604051808215151515815260200191505060405180910390f35b3480156103f657600080fd5b506104236004803603602081101561040d57600080fd5b8101908080359060200190929190505050610d59565b604051808273ffffffffffffffffffffffffffffffffffffffff1673ffffffffffffffffffffffffffffffffffffffff16815260200191505060405180910390f35b34801561047157600080fd5b5061049e6004803603602081101561048857600080fd5b8101908080359060200190929190505050610d97565b604051808273ffffffffffffffffffffffffffffffffffffffff1673ffffffffffffffffffffffffffffffffffffffff16815260200191505060405180910390f35b3480156104ec57600080fd5b506105196004803603602081101561050357600080fd5b8101908080359060200190929190505050610ddc565b005b34801561052757600080fd5b506105746004803603604081101561053e57600080fd5b8101908080359060200190929190803573ffffffffffffffffffffffffffffffffffffffff169060200190929190505050610e6d565b005b34801561058257600080fd5b506105af6004803603602081101561059957600080fd5b8101908080359060200190929190505050610f25565b6040518080602001828103825283818151815260200191508051906020019060200280838360005b838110156105f25780820151818401526020810190506105d7565b505050509050019250505060405180910390f35b34801561061257600080fd5b5061063f6004803603602081101561062957600080fd5b8101908080359060200190929190505050610fc9565b604051808273ffffffffffffffffffffffffffffffffffffffff1673ffffffffffffffffffffffffffffffffffffffff16815260200191505060405180910390f35b34801561068d57600080fd5b506106da600480360360408110156106a457600080fd5b8101908080359060200190929190803573ffffffffffffffffffffffffffffffffffffffff16906020019092919050505061100e565b005b3480156106e857600080fd5b50610715600480360360208110156106ff57600080fd5b810190808035906020019092919050505061117a565b604051808273ffffffffffffffffffffffffffffffffffffffff1673ffffffffffffffffffffffffffffffffffffffff16815260200191505060405180910390f35b34801561076357600080fd5b506107906004803603602081101561077a57600080fd5b81019080803590602001909291905050506111bf565b005b34801561079e57600080fd5b506107cb600480360360208110156107b557600080fd5b810190808035906020019092919050505061129c565b005b3480156107d957600080fd5b50610806600480360360208110156107f057600080fd5b81019080803590602001909291905050506113f6565b604051808781526020018060200180602001806020018681526020018573ffffffffffffffffffffffffffffffffffffffff1673ffffffffffffffffffffffffffffffffffffffff168152602001848103845289818151815260200191508051906020019080838360005b8381101561088c578082015181840152602081019050610871565b50505050905090810190601f1680156108b95780820380516001836020036101000a031916815260200191505b50848103835288818151815260200191508051906020019080838360005b838110156108f25780820151818401526020810190506108d7565b50505050905090810190601f16801561091f5780820380516001836020036101000a031916815260200191505b50848103825287818151815260200191508051906020019080838360005b8381101561095857808201518184015260208101905061093d565b50505050905090810190601f1680156109855780820380516001836020036101000a031916815260200191505b50995050505050505050505060405180910390f35b60008054905090565b60006001600083815260200190815260200160002090503373ffffffffffffffffffffffffffffffffffffffff168160050160009054906101000a900473ffffffffffffffffffffffffffffffffffffffff1673ffffffffffffffffffffffffffffffffffffffff161480610a6757503373ffffffffffffffffffffffffffffffffffffffff168160070160009054906101000a900473ffffffffffffffffffffffffffffffffffffffff1673ffffffffffffffffffffffffffffffffffffffff16145b15610af9578060080160009054906101000a900473ffffffffffffffffffffffffffffffffffffffff1673ffffffffffffffffffffffffffffffffffffffff166108fc82600401549081150290604051600060405180830381858888f19350505050158015610ada573d6000803e3d6000fd5b5060018160080160156101000a81548160ff0219169083151502179055505b5050565b6000600160008054815260200190815260200160002090503482141515610b8c576040517f08c379a000000000000000000000000000000000000000000000000000000000815260040180806020018281038252601b8152602001807f76616c756520646f6573206e6f7420657175616c20746f20706179000000000081525060200191505060405180910390fd5b600054816000018190555084816001019080519060200190610baf929190611693565b5083816002019080519060200190610bc8929190611693565b50348160040181905550338160050160006101000a81548173ffffffffffffffffffffffffffffffffffffffff021916908373ffffffffffffffffffffffffffffffffffffffff16021790555082816003019080519060200190610c2d929190611693565b508060080160009054906101000a90505060008160080160146101000a81548160ff02191690831515021790555060008160080160156101000a81548160ff0219169083151502179055506001600080828254019250508190555060023390806001815401808255809150509060018203906000526020600020016000909192909190916101000a81548173ffffffffffffffffffffffffffffffffffffffff021916908373ffffffffffffffffffffffffffffffffffffffff160217905550505050505050565b6000806001600084815260200190815260200160002090508060080160149054906101000a900460ff16915050919050565b6000806001600084815260200190815260200160002090508060080160159054906101000a900460ff16915050919050565b600281815481101515610d6857fe5b906000526020600020016000915054906101000a900473ffffffffffffffffffffffffffffffffffffffff1681565b6000806001600084815260200190815260200160002090508060070160009054906101000a900473ffffffffffffffffffffffffffffffffffffffff16915050919050565b60006001600083815260200190815260200160002090503373ffffffffffffffffffffffffffffffffffffffff168160080160009054906101000a900473ffffffffffffffffffffffffffffffffffffffff1673ffffffffffffffffffffffffffffffffffffffff161415610e695760018160080160146101000a81548160ff0219169083151502179055505b5050565b60006001600084815260200190815260200160002090503373ffffffffffffffffffffffffffffffffffffffff168160050160009054906101000a900473ffffffffffffffffffffffffffffffffffffffff1673ffffffffffffffffffffffffffffffffffffffff161415610f2057818160080160006101000a81548173ffffffffffffffffffffffffffffffffffffffff021916908373ffffffffffffffffffffffffffffffffffffffff1602179055505b505050565b606060016000838152602001908152602001600020600601805480602002602001604051908101604052809291908181526020018280548015610fbd57602002820191906000526020600020905b8160009054906101000a900473ffffffffffffffffffffffffffffffffffffffff1673ffffffffffffffffffffffffffffffffffffffff1681526020019060010190808311610f73575b50505050509050919050565b6000806001600084815260200190815260200160002090508060080160009054906101000a900473ffffffffffffffffffffffffffffffffffffffff16915050919050565b60006001600084815260200190815260200160002090503373ffffffffffffffffffffffffffffffffffffffff168160050160009054906101000a900473ffffffffffffffffffffffffffffffffffffffff1673ffffffffffffffffffffffffffffffffffffffff161415611175578173ffffffffffffffffffffffffffffffffffffffff168160050160009054906101000a900473ffffffffffffffffffffffffffffffffffffffff1673ffffffffffffffffffffffffffffffffffffffff16141515611174578173ffffffffffffffffffffffffffffffffffffffff168160080160009054906101000a900473ffffffffffffffffffffffffffffffffffffffff1673ffffffffffffffffffffffffffffffffffffffff1614151561117357818160070160006101000a81548173ffffffffffffffffffffffffffffffffffffffff021916908373ffffffffffffffffffffffffffffffffffffffff1602179055505b5b5b505050565b6000806001600084815260200190815260200160002090508060050160009054906101000a900473ffffffffffffffffffffffffffffffffffffffff16915050919050565b60006001600083815260200190815260200160002090503373ffffffffffffffffffffffffffffffffffffffff168160050160009054906101000a900473ffffffffffffffffffffffffffffffffffffffff1673ffffffffffffffffffffffffffffffffffffffff1614151561129857806006013390806001815401808255809150509060018203906000526020600020016000909192909190916101000a81548173ffffffffffffffffffffffffffffffffffffffff021916908373ffffffffffffffffffffffffffffffffffffffff160217905550505b5050565b60006001600083815260200190815260200160002090503373ffffffffffffffffffffffffffffffffffffffff168160050160009054906101000a900473ffffffffffffffffffffffffffffffffffffffff1673ffffffffffffffffffffffffffffffffffffffff16148061136057503373ffffffffffffffffffffffffffffffffffffffff168160070160009054906101000a900473ffffffffffffffffffffffffffffffffffffffff1673ffffffffffffffffffffffffffffffffffffffff16145b156113f25760018160080160156101000a81548160ff0219169083151502179055508060050160009054906101000a900473ffffffffffffffffffffffffffffffffffffffff1673ffffffffffffffffffffffffffffffffffffffff166108fc82600401549081150290604051600060405180830381858888f193505050501580156113f0573d6000803e3d6000fd5b505b5050565b60006060806060600080600160008881526020019081526020016000206000015460016000898152602001908152602001600020600101600160008a8152602001908152602001600020600201600160008b8152602001908152602001600020600301600160008c815260200190815260200160002060040154600160008d815260200190815260200160002060050160009054906101000a900473ffffffffffffffffffffffffffffffffffffffff16848054600181600116156101000203166002900480601f01602080910402602001604051908101604052809291908181526020018280546001816001161561010002031660029004801561153c5780601f106115115761010080835404028352916020019161153c565b820191906000526020600020905b81548152906001019060200180831161151f57829003601f168201915b50505050509450838054600181600116156101000203166002900480601f0160208091040260200160405190810160405280929190818152602001828054600181600116156101000203166002900480156115d85780601f106115ad576101008083540402835291602001916115d8565b820191906000526020600020905b8154815290600101906020018083116115bb57829003601f168201915b50505050509350828054600181600116156101000203166002900480601f0160208091040260200160405190810160405280929190818152602001828054600181600116156101000203166002900480156116745780601f1061164957610100808354040283529160200191611674565b820191906000526020600020905b81548152906001019060200180831161165757829003601f168201915b5050505050925080905095509550955095509550955091939550919395565b828054600181600116156101000203166002900490600052602060002090601f016020900481019282601f106116d457805160ff1916838001178555611702565b82800160010185558215611702579182015b828111156117015782518255916020019190600101906116e6565b5b50905061170f9190611713565b5090565b61173591905b80821115611731576000816000905550600101611719565b5090565b9056fea165627a7a72305820db24b5e9e8b8dec11f6588b03691d50412f70cef4b4636a83435a102a4dd318c0029",
  "source": "pragma solidity ^0.5.0 ;\n\n/// @title Bounty management\n/// @author Kenneth Hu\n/// @notice You can use this contract to manage bounty.\n/// @dev All function calls are currently implemented without side effects\ncontract BountyPost{\n    struct Bounty {\n        uint id;\n        string title;\n        string description;\n        string attachment;\n        uint payment;\n        address payable owner;\n        address payable[] applicants;\n        address arbitrator;\n        address payable worker ;\n        bool workCompleted; // Indicates if the work has been marked as complete\n        bool isCompleted; // Indicates if the bounty has been marked as complete\n    }\n\n    uint totalBounties = 0;\n    mapping (uint => Bounty) allBounties;\n    address[] public posterAccounts;\n\n    /// @notice Add a bounty to list of all bounties\n    /// @param title the title of bounty\n    /// @param desc the description of bounty\n    /// @param desc the value of ipfs hash of bounty\n    /// @param pay the amount of bounty\n    function addBounty(string memory title, string memory desc, string memory attachment, uint pay) public payable {\n        Bounty storage bounty = allBounties[totalBounties];\n        require(pay == msg.value,\"value does not equal to pay\");\n\n        bounty.id = totalBounties;\n        bounty.title = title;\n        bounty.description = desc;\n        bounty.payment = msg.value;\n        bounty.owner = msg.sender;\n        bounty.attachment = attachment;\n        bounty.applicants;\n        bounty.worker;\n        bounty.workCompleted = false;\n        bounty.isCompleted = false;\n\n        totalBounties += 1;\n\n        posterAccounts.push(msg.sender);\n\n    }\n\n    /// @notice allows the owner to assign an arbitrator\n    /// @param bountyId the id of bounty\n    /// @param arbitrator the arbitrator's address\n    function setArbitrator(uint bountyId, address arbitrator) public {\n        Bounty storage bounty = allBounties[bountyId];\n        if (bounty.owner == msg.sender) {\n            if (bounty.owner != arbitrator) {\n                if(bounty.worker != arbitrator){\n                bounty.arbitrator = arbitrator;\n                }\n            }\n        }\n    }\n\n    /// @notice get arbitrator of a bounty by the index of bounty\n    /// @param bountyId the index of bounty\n    /// @return arbitrator of a bounty\n    function getArbitrator(uint bountyId) public view returns (address) {\n        Bounty storage bounty = allBounties[bountyId];\n        return bounty.arbitrator;\n    }\n\n    /// @notice get a bounty by index\n    /// @param i the index of bounty\n    /// @return the details of bounty\n    function getBounty(uint i) public view returns(uint ,\n    string memory,\n     string memory,\n    string memory, uint, address) {\n        return (allBounties[i].id,\n         allBounties[i].title,\n         allBounties[i].description,\n         allBounties[i].attachment,\n         allBounties[i].payment,\n         allBounties[i].owner);\n    }\n\n    /// @notice get the bounty count\n    /// @return the bounty count\n    function getBountyCount() public view returns (uint){\n        return totalBounties;\n    }\n\n    /// @notice Adds a non owner account as an applicant\n    /// @param i the index of bounty\n    function applyToBounty(uint i) public {\n        Bounty storage bounty = allBounties[i];\n        if (bounty.owner != msg.sender) {\n            bounty.applicants.push(msg.sender);\n        }\n    }\n\n    /// @notice get the list of applicantst by the index of bounty\n    /// @param i the index of bounty\n    /// @return the list of applicants\n    function getApplicants(uint i) public view returns(address payable[] memory ){\n        return allBounties[i].applicants;\n    }\n\n    /// @notice allows the owner to assign a worker\n    /// @param bountyId the id of bounty\n    /// @param candidate the address of candidate\n    function setWorker(uint bountyId, address payable candidate) public {\n        Bounty storage bounty = allBounties[bountyId];\n        if (bounty.owner == msg.sender) {\n            bounty.worker = candidate;\n        }\n    }\n\n    /// @notice get worker of a bounty by the index of bounty\n    /// @param bountyId the index of bounty\n    /// @return worker of a bounty\n    function getWorker(uint bountyId) public view returns (address) {\n        Bounty storage bounty = allBounties[bountyId];\n        return bounty.worker;\n    }\n\n    /// @notice get owner of a bounty by the index of bounty\n    /// @param bountyId the index of bounty\n    /// @return owner of a bounty\n    function getOwner(uint bountyId) public view returns (address) {\n        Bounty storage bounty = allBounties[bountyId];\n        return bounty.owner;\n    }\n\n    /// @notice allows the worker to complete the bounty\n    /// @param bountyId the index of bounty\n    function completeWork(uint bountyId) public  {\n        Bounty storage bounty = allBounties[bountyId];\n        if (bounty.worker == msg.sender) {\n          bounty.workCompleted = true;\n        }\n    }\n\n    /// @notice Returns if the worker has marked the bounty as complete\n    /// @param bountyId the index of bounty\n    /// @return the status of a bounty\n    function isWorkComplete(uint bountyId) public view returns (bool){\n        Bounty storage bounty = allBounties[bountyId];\n        return bounty.workCompleted;\n    }\n\n    /// @notice allows the owner to complete the bounty and make payment\n    /// @param bountyId the index of bounty\n    function completeBounty(uint bountyId) public {\n        Bounty storage bounty = allBounties[bountyId];\n        if (bounty.owner == msg.sender || bounty.arbitrator == msg.sender) {\n         bounty.worker.transfer(bounty.payment);\n          bounty.isCompleted = true;\n        }\n    }\n\n    /// @notice Returns if the bounty is completed\n    /// @param bountyId the index of bounty\n    /// @return the status of a bounty\n    function isComplete(uint bountyId) public view returns (bool){\n         Bounty storage bounty = allBounties[bountyId];\n        return bounty.isCompleted;\n    }\n\n    /// @notice allows the owner to cancel the bounty\n    /// @param bountyId the index of bounty\n    function cancelBounty(uint bountyId) public {\n        Bounty storage bounty = allBounties[bountyId];\n        if (bounty.owner == msg.sender || bounty.arbitrator == msg.sender) {\n          bounty.isCompleted = true;\n          bounty.owner.transfer(bounty.payment);\n        }\n    }\n}\n",
  "sourcePath": "/Users/kenneth/Desktop/Project/consensys/contracts/BountyPost.sol",
  "compiler": {
    "name": "solc",
    "version": "0.5.0+commit.1d4f565a.Emscripten.clang"
  },
  "schemaVersion": "3.0.1",
  "updatedAt": "2020-01-24T13:07:28.945Z",
  "devdoc": {
    "author": "Kenneth Hu",
    "details": "All function calls are currently implemented without side effects",
    "methods": {
      "addBounty(string,string,string,uint256)": {
        "params": {
          "desc": "the value of ipfs hash of bounty",
          "pay": "the amount of bounty",
          "title": "the title of bounty"
        }
      },
      "applyToBounty(uint256)": {
        "params": {
          "i": "the index of bounty"
        }
      },
      "cancelBounty(uint256)": {
        "params": {
          "bountyId": "the index of bounty"
        }
      },
      "completeBounty(uint256)": {
        "params": {
          "bountyId": "the index of bounty"
        }
      },
      "completeWork(uint256)": {
        "params": {
          "bountyId": "the index of bounty"
        }
      },
      "getApplicants(uint256)": {
        "params": {
          "i": "the index of bounty"
        },
        "return": "the list of applicants"
      },
      "getArbitrator(uint256)": {
        "params": {
          "bountyId": "the index of bounty"
        },
        "return": "arbitrator of a bounty"
      },
      "getBounty(uint256)": {
        "params": {
          "i": "the index of bounty"
        },
        "return": "the details of bounty"
      },
      "getBountyCount()": {
        "return": "the bounty count"
      },
      "getOwner(uint256)": {
        "params": {
          "bountyId": "the index of bounty"
        },
        "return": "owner of a bounty"
      },
      "getWorker(uint256)": {
        "params": {
          "bountyId": "the index of bounty"
        },
        "return": "worker of a bounty"
      },
      "isComplete(uint256)": {
        "params": {
          "bountyId": "the index of bounty"
        },
        "return": "the status of a bounty"
      },
      "isWorkComplete(uint256)": {
        "params": {
          "bountyId": "the index of bounty"
        },
        "return": "the status of a bounty"
      },
      "setArbitrator(uint256,address)": {
        "params": {
          "arbitrator": "the arbitrator's address",
          "bountyId": "the id of bounty"
        }
      },
      "setWorker(uint256,address)": {
        "params": {
          "bountyId": "the id of bounty",
          "candidate": "the address of candidate"
        }
      }
    },
    "title": "Bounty management"
  },
  "userdoc": {
    "methods": {
      "addBounty(string,string,string,uint256)": {
        "notice": "Add a bounty to list of all bounties"
      },
      "applyToBounty(uint256)": {
        "notice": "Adds a non owner account as an applicant"
      },
      "cancelBounty(uint256)": {
        "notice": "allows the owner to cancel the bounty"
      },
      "completeBounty(uint256)": {
        "notice": "allows the owner to complete the bounty and make payment"
      },
      "completeWork(uint256)": {
        "notice": "allows the worker to complete the bounty"
      },
      "getApplicants(uint256)": {
        "notice": "get the list of applicantst by the index of bounty"
      },
      "getArbitrator(uint256)": {
        "notice": "get arbitrator of a bounty by the index of bounty"
      },
      "getBounty(uint256)": {
        "notice": "get a bounty by index"
      },
      "getBountyCount()": {
        "notice": "get the bounty count"
      },
      "getOwner(uint256)": {
        "notice": "get owner of a bounty by the index of bounty"
      },
      "getWorker(uint256)": {
        "notice": "get worker of a bounty by the index of bounty"
      },
      "isComplete(uint256)": {
        "notice": "Returns if the bounty is completed"
      },
      "isWorkComplete(uint256)": {
        "notice": "Returns if the worker has marked the bounty as complete"
      },
      "setArbitrator(uint256,address)": {
        "notice": "allows the owner to assign an arbitrator"
      },
      "setWorker(uint256,address)": {
        "notice": "allows the owner to assign a worker"
      }
    },
    "notice": "You can use this contract to manage bounty."
  }
}