{
  "contractName": "Reviews",
  "abi": [
    {
      "constant": true,
      "inputs": [
        {
          "name": "",
          "type": "uint256"
        }
      ],
      "name": "allReviews",
      "outputs": [
        {
          "name": "",
          "type": "uint256"
        }
      ],
      "payable": false,
      "stateMutability": "view",
      "type": "function",
      "signature": "0xffa590ae"
    },
    {
      "constant": false,
      "inputs": [
        {
          "name": "_reviewee",
          "type": "address"
        },
        {
          "name": "_bountyID",
          "type": "uint256"
        },
        {
          "name": "_reviewText",
          "type": "string"
        },
        {
          "name": "_stars",
          "type": "uint256"
        }
      ],
      "name": "postReview",
      "outputs": [],
      "payable": false,
      "stateMutability": "nonpayable",
      "type": "function",
      "signature": "0xe2ec9b5a"
    },
    {
      "constant": true,
      "inputs": [
        {
          "name": "reviewID",
          "type": "uint256"
        }
      ],
      "name": "getReview",
      "outputs": [
        {
          "name": "",
          "type": "address"
        },
        {
          "name": "",
          "type": "uint256"
        },
        {
          "name": "",
          "type": "string"
        },
        {
          "name": "",
          "type": "uint256"
        },
        {
          "name": "",
          "type": "uint256"
        },
        {
          "name": "",
          "type": "address"
        }
      ],
      "payable": false,
      "stateMutability": "view",
      "type": "function",
      "signature": "0x990581b6"
    },
    {
      "constant": true,
      "inputs": [
        {
          "name": "addr",
          "type": "address"
        }
      ],
      "name": "getReceivedReviews",
      "outputs": [
        {
          "name": "",
          "type": "uint256[]"
        }
      ],
      "payable": false,
      "stateMutability": "view",
      "type": "function",
      "signature": "0x5c5fa490"
    },
    {
      "constant": true,
      "inputs": [
        {
          "name": "addr",
          "type": "address"
        }
      ],
      "name": "getSentReviews",
      "outputs": [
        {
          "name": "",
          "type": "uint256[]"
        }
      ],
      "payable": false,
      "stateMutability": "view",
      "type": "function",
      "signature": "0x0e31181a"
    },
    {
      "constant": true,
      "inputs": [
        {
          "name": "bountyID",
          "type": "uint256"
        }
      ],
      "name": "getBountyReviews",
      "outputs": [
        {
          "name": "",
          "type": "uint256[]"
        }
      ],
      "payable": false,
      "stateMutability": "view",
      "type": "function",
      "signature": "0x01d24084"
    },
    {
      "constant": true,
      "inputs": [],
      "name": "getReviewCount",
      "outputs": [
        {
          "name": "",
          "type": "uint256"
        }
      ],
      "payable": false,
      "stateMutability": "view",
      "type": "function",
      "signature": "0x709dc7fb"
    }
  ],
  "bytecode": "0x60806040526000805534801561001457600080fd5b50610b81806100246000396000f3fe608060405260043610610083576000357c0100000000000000000000000000000000000000000000000000000000900463ffffffff16806301d24084146100885780630e31181a146101185780635c5fa490146101be578063709dc7fb14610264578063990581b61461028f578063e2ec9b5a146103be578063ffa590ae146104ba575b600080fd5b34801561009457600080fd5b506100c1600480360360208110156100ab57600080fd5b8101908080359060200190929190505050610509565b6040518080602001828103825283818151815260200191508051906020019060200280838360005b838110156101045780820151818401526020810190506100e9565b505050509050019250505060405180910390f35b34801561012457600080fd5b506101676004803603602081101561013b57600080fd5b81019080803573ffffffffffffffffffffffffffffffffffffffff169060200190929190505050610574565b6040518080602001828103825283818151815260200191508051906020019060200280838360005b838110156101aa57808201518184015260208101905061018f565b505050509050019250505060405180910390f35b3480156101ca57600080fd5b5061020d600480360360208110156101e157600080fd5b81019080803573ffffffffffffffffffffffffffffffffffffffff16906020019092919050505061060b565b6040518080602001828103825283818151815260200191508051906020019060200280838360005b83811015610250578082015181840152602081019050610235565b505050509050019250505060405180910390f35b34801561027057600080fd5b506102796106a2565b6040518082815260200191505060405180910390f35b34801561029b57600080fd5b506102c8600480360360208110156102b257600080fd5b81019080803590602001909291905050506106ab565b604051808773ffffffffffffffffffffffffffffffffffffffff1673ffffffffffffffffffffffffffffffffffffffff168152602001868152602001806020018581526020018481526020018373ffffffffffffffffffffffffffffffffffffffff1673ffffffffffffffffffffffffffffffffffffffff168152602001828103825286818151815260200191508051906020019080838360005b8381101561037e578082015181840152602081019050610363565b50505050905090810190601f1680156103ab5780820380516001836020036101000a031916815260200191505b5097505050505050505060405180910390f35b3480156103ca57600080fd5b506104b8600480360360808110156103e157600080fd5b81019080803573ffffffffffffffffffffffffffffffffffffffff169060200190929190803590602001909291908035906020019064010000000081111561042857600080fd5b82018360208201111561043a57600080fd5b8035906020019184600183028401116401000000008311171561045c57600080fd5b91908080601f016020809104026020016040519081016040528093929190818152602001838380828437600081840152601f19601f8201169050808301925050505050505091929192908035906020019092919050505061082f565b005b3480156104c657600080fd5b506104f3600480360360208110156104dd57600080fd5b8101908080359060200190929190505050610a8d565b6040518082815260200191505060405180910390f35b60606002600083815260200190815260200160002080548060200260200160405190810160405280929190818152602001828054801561056857602002820191906000526020600020905b815481526020019060010190808311610554575b50505050509050919050565b6060600360008373ffffffffffffffffffffffffffffffffffffffff1673ffffffffffffffffffffffffffffffffffffffff1681526020019081526020016000208054806020026020016040519081016040528092919081815260200182805480156105ff57602002820191906000526020600020905b8154815260200190600101908083116105eb575b50505050509050919050565b6060600460008373ffffffffffffffffffffffffffffffffffffffff1673ffffffffffffffffffffffffffffffffffffffff16815260200190815260200160002080548060200260200160405190810160405280929190818152602001828054801561069657602002820191906000526020600020905b815481526020019060010190808311610682575b50505050509050919050565b60008054905090565b600080606060008060006001600088815260200190815260200160002060000160009054906101000a900473ffffffffffffffffffffffffffffffffffffffff166001600089815260200190815260200160002060010154600160008a8152602001908152602001600020600201600160008b815260200190815260200160002060030154600160008c815260200190815260200160002060040154600160008d815260200190815260200160002060050160009054906101000a900473ffffffffffffffffffffffffffffffffffffffff16838054600181600116156101000203166002900480601f0160208091040260200160405190810160405280929190818152602001828054600181600116156101000203166002900480156108135780601f106107e857610100808354040283529160200191610813565b820191906000526020600020905b8154815290600101906020018083116107f657829003601f168201915b5050505050935095509550955095509550955091939550919395565b600060016000805481526020019081526020016000209050848160000160006101000a81548173ffffffffffffffffffffffffffffffffffffffff021916908373ffffffffffffffffffffffffffffffffffffffff160217905550838160010181905550828160020190805190602001906108ab929190610ab0565b508181600301819055506000548160040181905550338160050160006101000a81548173ffffffffffffffffffffffffffffffffffffffff021916908373ffffffffffffffffffffffffffffffffffffffff160217905550600581600401549080600181540180825580915050906001820390600052602060002001600090919290919091505550600260008260010154815260200190815260200160002081600401549080600181540180825580915050906001820390600052602060002001600090919290919091505550600360003373ffffffffffffffffffffffffffffffffffffffff1673ffffffffffffffffffffffffffffffffffffffff16815260200190815260200160002081600401549080600181540180825580915050906001820390600052602060002001600090919290919091505550600460008260000160009054906101000a900473ffffffffffffffffffffffffffffffffffffffff1673ffffffffffffffffffffffffffffffffffffffff1673ffffffffffffffffffffffffffffffffffffffff16815260200190815260200160002081600401549080600181540180825580915050906001820390600052602060002001600090919290919091505550600160008082825401925050819055505050505050565b600581815481101515610a9c57fe5b906000526020600020016000915090505481565b828054600181600116156101000203166002900490600052602060002090601f016020900481019282601f10610af157805160ff1916838001178555610b1f565b82800160010185558215610b1f579182015b82811115610b1e578251825591602001919060010190610b03565b5b509050610b2c9190610b30565b5090565b610b5291905b80821115610b4e576000816000905550600101610b36565b5090565b9056fea165627a7a72305820ff88a677438461a739b0ac127473f6552233ae43acd08adb675076af2f2e83ca0029",
  "source": "pragma solidity ^0.5.0;\r\n\r\n/// @title Review management\r\n/// @author Kenneth Hu\r\n/// @notice Owner and worker can leave comment to each other\r\n/// @dev All function calls are currently implemented without side e\r\ncontract Reviews {\r\n    struct Review {\r\n        address reviewee;\r\n        uint bountyID;\r\n        string reviewText;\r\n        uint stars;\r\n        uint reviewID;\r\n        address reviewer;\r\n    }\r\n\r\n    uint reviewCounter = 0;\r\n    mapping (uint => Review) reviews;\r\n    mapping (uint => uint[]) bountyReviews; // Mapping of reviews to a specific bounty\r\n    mapping (address => uint[]) reviewsSent; // Mapping of reviews sent by specific user\r\n    mapping (address => uint[]) reviewsReceived; // Mapping of reviews recieved by specific user\r\n    uint[] public allReviews;\r\n\r\n    /// @notice post an account\r\n    /// @param _reviewee A reviewee is the person who is being reviewed.\r\n    /// @param _bountyID the ID of bounty\r\n    /// @param _reviewText the content of review\r\n    /// @param _stars stars are often used as symbols for ratings, with five stars being the highest quality.\r\n    function postReview(address _reviewee,\r\n    uint _bountyID,\r\n    string memory _reviewText, uint _stars) public {\r\n        Review storage review = reviews[reviewCounter];\r\n\r\n        review.reviewee = _reviewee;\r\n        review.bountyID = _bountyID;\r\n        review.reviewText = _reviewText;\r\n        review.stars = _stars;\r\n        review.reviewID = reviewCounter;\r\n        review.reviewer = msg.sender;\r\n\r\n        allReviews.push(review.reviewID);\r\n        bountyReviews[review.bountyID].push(review.reviewID);\r\n        reviewsSent[msg.sender].push(review.reviewID);\r\n        reviewsReceived[review.reviewee].push(review.reviewID);\r\n\r\n        reviewCounter += 1;\r\n    }\r\n\r\n    /// @notice get review by the index of review\r\n    /// @param i the index of review\r\n    /// @return Returns a review\r\n    function getReview(uint reviewID) public view returns (address, uint, string memory, uint, uint, address) {\r\n        return (reviews[reviewID].reviewee,\r\n         reviews[reviewID].bountyID,\r\n          reviews[reviewID].reviewText,\r\n           reviews[reviewID].stars,\r\n            reviews[reviewID].reviewID,\r\n             reviews[reviewID].reviewer);\r\n    }\r\n\r\n    /// @notice get the reviews recieved by a user\r\n    /// @param addr user's address\r\n    /// @return Returns the reviews\r\n    function getReceivedReviews(address addr) public view returns (uint[] memory) {\r\n        return reviewsReceived[addr];\r\n    }\r\n\r\n    /// @notice get the reviews sent by a user\r\n    /// @param addr user's address\r\n    /// @return Returns the reviews\r\n    function getSentReviews(address addr) public view returns (uint[] memory) {\r\n        return reviewsSent[addr];\r\n    }\r\n\r\n    /// @notice get reviews related to a bounty\r\n    /// @param bountyID user's address\r\n    /// @return reviews related to a bounty\r\n    function getBountyReviews(uint bountyID) public view returns (uint[] memory) {\r\n        return bountyReviews[bountyID];\r\n    }\r\n\r\n    /// @notice get the total number of review\r\n    /// @return he total number of review\r\n    function getReviewCount() public view returns (uint) {\r\n        return reviewCounter;\r\n    }\r\n}\r\n",
  "sourcePath": "/Users/kenneth/Desktop/Project/consensys/contracts/Review.sol",
  "compiler": {
    "name": "solc",
    "version": "0.5.0+commit.1d4f565a.Emscripten.clang"
  },
  "schemaVersion": "3.0.1",
  "updatedAt": "2020-01-24T13:07:28.954Z",
  "devdoc": {
    "details": "All function calls are currently implemented without side e",
    "methods": {
      "getBountyReviews(uint256)": {
        "return": "reviews related to a bounty"
      },
      "getReceivedReviews(address)": {
        "return": "Returns the reviews"
      },
      "getReview(uint256)": {
        "return": "Returns a review"
      },
      "getReviewCount()": {
        "return": "he total number of review"
      },
      "getSentReviews(address)": {
        "return": "Returns the reviews"
      },
      "postReview(address,uint256,string,uint256)": {
        "params": {
          "_stars": "stars are often used as symbols for ratings, with five stars being the highest quality."
        }
      }
    }
  },
  "userdoc": {
    "methods": {}
  }
}